S00C000061736B332E73726563A6
S11300000C942A000C943C000C943C000C943C008E
S11300100C943C000C943C000C943C000C943C006C
S11300200C943C000C943C000C943C000C943C005C
S11300300C943C000C943C000C943C000C943C004C
S11300400C943C000C943C000C943C000C943C003C
S11300500C943C0011241FBECFE5D4E0DEBFCDBF1D
S113006020E0A0E6B0E001C01D92A236B207E1F79D
S11300700E943E000C9475000C9400008FEF8ABB24
S113008014BA81E08093600083B38093610081306F
S113009061F480916000803821F481E080936000F5
S11300A01DC0880F8093600019C0823061F4809174
S11300B06000813021F480E8809360000FC0869551
S11300C0809360000BC0843021F480E8809360004A
S11300D005C0883019F481E08093600083B38111F6
S11100E0FDCF809160008BBBCFCFF894FFCF93
S9030000FC
