:100000000C942A000C9434000C9434000C943400AA
:100010000C9434000C9434000C9434000C94340090
:100020000C9434000C9434000C9434000C94340080
:100030000C9434000C9434000C9434000C94340070
:100040000C9434000C9434000C9434000C94340060
:100050000C94340011241FBECFE5D4E0DEBFCDBF29
:100060000E9436000C9468000C9400008FEF87BB50
:100070001ABA29B3622F6170322F3270432F50E0C9
:1000800055954795322F3470832F90E0959587953D
:1000900095958795287030E0359527953595279566
:1000A00035952795962F9423382F30953923522F45
:1000B0005823352B30953170962F942B282B922373
:1000C000892F90E0880F991F8270832B88BBD1CF36
:0400D000F894FFCFD2
:00000001FF
